{
  "contractName": "KyotoSwap",
  "abi": [
    {
      "inputs": [
        {
          "internalType": "address",
          "name": "_busd",
          "type": "address"
        },
        {
          "internalType": "address",
          "name": "_kyo",
          "type": "address"
        }
      ],
      "stateMutability": "nonpayable",
      "type": "constructor"
    },
    {
      "anonymous": false,
      "inputs": [
        {
          "indexed": true,
          "internalType": "address",
          "name": "owner",
          "type": "address"
        },
        {
          "indexed": true,
          "internalType": "address",
          "name": "spender",
          "type": "address"
        },
        {
          "indexed": false,
          "internalType": "uint256",
          "name": "value",
          "type": "uint256"
        }
      ],
      "name": "Approval",
      "type": "event"
    },
    {
      "anonymous": false,
      "inputs": [
        {
          "indexed": true,
          "internalType": "address",
          "name": "previousOwner",
          "type": "address"
        },
        {
          "indexed": true,
          "internalType": "address",
          "name": "newOwner",
          "type": "address"
        }
      ],
      "name": "OwnershipTransferred",
      "type": "event"
    },
    {
      "anonymous": false,
      "inputs": [
        {
          "indexed": true,
          "internalType": "address",
          "name": "from",
          "type": "address"
        },
        {
          "indexed": true,
          "internalType": "address",
          "name": "to",
          "type": "address"
        },
        {
          "indexed": false,
          "internalType": "uint256",
          "name": "value",
          "type": "uint256"
        }
      ],
      "name": "Transfer",
      "type": "event"
    },
    {
      "inputs": [],
      "name": "busd",
      "outputs": [
        {
          "internalType": "contract IERC20",
          "name": "",
          "type": "address"
        }
      ],
      "stateMutability": "view",
      "type": "function",
      "constant": true
    },
    {
      "inputs": [],
      "name": "kyo",
      "outputs": [
        {
          "internalType": "contract IERC20",
          "name": "",
          "type": "address"
        }
      ],
      "stateMutability": "view",
      "type": "function",
      "constant": true
    },
    {
      "inputs": [],
      "name": "owner",
      "outputs": [
        {
          "internalType": "address",
          "name": "",
          "type": "address"
        }
      ],
      "stateMutability": "view",
      "type": "function",
      "constant": true
    },
    {
      "inputs": [],
      "name": "renounceOwnership",
      "outputs": [],
      "stateMutability": "nonpayable",
      "type": "function"
    },
    {
      "inputs": [
        {
          "internalType": "address",
          "name": "newOwner",
          "type": "address"
        }
      ],
      "name": "transferOwnership",
      "outputs": [],
      "stateMutability": "nonpayable",
      "type": "function"
    },
    {
      "inputs": [
        {
          "internalType": "uint256",
          "name": "_amountbusd",
          "type": "uint256"
        }
      ],
      "name": "swap",
      "outputs": [],
      "stateMutability": "nonpayable",
      "type": "function"
    },
    {
      "inputs": [],
      "name": "withdrawbalance",
      "outputs": [],
      "stateMutability": "nonpayable",
      "type": "function"
    },
    {
      "inputs": [
        {
          "internalType": "address",
          "name": "owner",
          "type": "address"
        },
        {
          "internalType": "address",
          "name": "spender",
          "type": "address"
        }
      ],
      "name": "allowance",
      "outputs": [
        {
          "internalType": "uint256",
          "name": "",
          "type": "uint256"
        }
      ],
      "stateMutability": "view",
      "type": "function",
      "constant": true
    },
    {
      "inputs": [
        {
          "internalType": "address",
          "name": "spender",
          "type": "address"
        },
        {
          "internalType": "uint256",
          "name": "amount",
          "type": "uint256"
        }
      ],
      "name": "approve",
      "outputs": [
        {
          "internalType": "bool",
          "name": "",
          "type": "bool"
        }
      ],
      "stateMutability": "nonpayable",
      "type": "function"
    },
    {
      "inputs": [
        {
          "internalType": "address",
          "name": "account",
          "type": "address"
        }
      ],
      "name": "balanceOf",
      "outputs": [
        {
          "internalType": "uint256",
          "name": "",
          "type": "uint256"
        }
      ],
      "stateMutability": "view",
      "type": "function",
      "constant": true
    },
    {
      "inputs": [],
      "name": "totalSupply",
      "outputs": [
        {
          "internalType": "uint256",
          "name": "",
          "type": "uint256"
        }
      ],
      "stateMutability": "view",
      "type": "function",
      "constant": true
    },
    {
      "inputs": [
        {
          "internalType": "address",
          "name": "recipient",
          "type": "address"
        },
        {
          "internalType": "uint256",
          "name": "amount",
          "type": "uint256"
        }
      ],
      "name": "transfer",
      "outputs": [
        {
          "internalType": "bool",
          "name": "",
          "type": "bool"
        }
      ],
      "stateMutability": "nonpayable",
      "type": "function"
    },
    {
      "inputs": [
        {
          "internalType": "address",
          "name": "sender",
          "type": "address"
        },
        {
          "internalType": "address",
          "name": "recipient",
          "type": "address"
        },
        {
          "internalType": "uint256",
          "name": "amount",
          "type": "uint256"
        }
      ],
      "name": "transferFrom",
      "outputs": [
        {
          "internalType": "bool",
          "name": "",
          "type": "bool"
        }
      ],
      "stateMutability": "nonpayable",
      "type": "function"
    }
  ],
  "bytecode": "0x60806040523480156200001157600080fd5b506040516200152a3803806200152a8339818101604052810190620000379190620001e3565b6000620000496200017160201b60201c565b9050806000806101000a81548173ffffffffffffffffffffffffffffffffffffffff021916908373ffffffffffffffffffffffffffffffffffffffff1602179055508073ffffffffffffffffffffffffffffffffffffffff16600073ffffffffffffffffffffffffffffffffffffffff167f8be0079c531659141344cd1fd0a4f28419497f9722a3daafe3b4186f6b6457e060405160405180910390a35081600160006101000a81548173ffffffffffffffffffffffffffffffffffffffff021916908373ffffffffffffffffffffffffffffffffffffffff16021790555080600260006101000a81548173ffffffffffffffffffffffffffffffffffffffff021916908373ffffffffffffffffffffffffffffffffffffffff16021790555050506200022a565b600033905090565b600080fd5b600073ffffffffffffffffffffffffffffffffffffffff82169050919050565b6000620001ab826200017e565b9050919050565b620001bd816200019e565b8114620001c957600080fd5b50565b600081519050620001dd81620001b2565b92915050565b60008060408385031215620001fd57620001fc62000179565b5b60006200020d85828601620001cc565b92505060206200022085828601620001cc565b9150509250929050565b6112f0806200023a6000396000f3fe608060405234801561001057600080fd5b50600436106100cf5760003560e01c80638da5cb5b1161008c578063a9059cbb11610066578063a9059cbb14610202578063dd62ed3e14610232578063f2fde38b14610262578063ffc1b8771461027e576100cf565b80638da5cb5b146101aa57806394b918de146101c857806399618439146101e4576100cf565b8063095ea7b3146100d457806318160ddd1461010457806323b872dd146101225780633ca5b2341461015257806370a0823114610170578063715018a6146101a0575b600080fd5b6100ee60048036038101906100e99190610c89565b610288565b6040516100fb9190610ce4565b60405180910390f35b61010c610290565b6040516101199190610d0e565b60405180910390f35b61013c60048036038101906101379190610d29565b610295565b6040516101499190610ce4565b60405180910390f35b61015a61029e565b6040516101679190610ddb565b60405180910390f35b61018a60048036038101906101859190610df6565b6102c4565b6040516101979190610d0e565b60405180910390f35b6101a86102cb565b005b6101b2610405565b6040516101bf9190610e32565b60405180910390f35b6101e260048036038101906101dd9190610e4d565b61042e565b005b6101ec610734565b6040516101f99190610ddb565b60405180910390f35b61021c60048036038101906102179190610c89565b61075a565b6040516102299190610ce4565b60405180910390f35b61024c60048036038101906102479190610e7a565b610762565b6040516102599190610d0e565b60405180910390f35b61027c60048036038101906102779190610df6565b61076a565b005b610286610913565b005b600092915050565b600090565b60009392505050565b600160009054906101000a900473ffffffffffffffffffffffffffffffffffffffff1681565b6000919050565b6102d3610af8565b73ffffffffffffffffffffffffffffffffffffffff166102f1610405565b73ffffffffffffffffffffffffffffffffffffffff1614610347576040517f08c379a000000000000000000000000000000000000000000000000000000000815260040161033e90610f17565b60405180910390fd5b600073ffffffffffffffffffffffffffffffffffffffff1660008054906101000a900473ffffffffffffffffffffffffffffffffffffffff1673ffffffffffffffffffffffffffffffffffffffff167f8be0079c531659141344cd1fd0a4f28419497f9722a3daafe3b4186f6b6457e060405160405180910390a360008060006101000a81548173ffffffffffffffffffffffffffffffffffffffff021916908373ffffffffffffffffffffffffffffffffffffffff160217905550565b60008060009054906101000a900473ffffffffffffffffffffffffffffffffffffffff16905090565b6000811161043b57600080fd5b600160009054906101000a900473ffffffffffffffffffffffffffffffffffffffff1673ffffffffffffffffffffffffffffffffffffffff166370a08231610481610af8565b6040518263ffffffff1660e01b815260040161049d9190610e32565b60206040518083038186803b1580156104b557600080fd5b505afa1580156104c9573d6000803e3d6000fd5b505050506040513d601f19601f820116820180604052508101906104ed9190610f4c565b81111561052f576040517f08c379a000000000000000000000000000000000000000000000000000000000815260040161052690610fc5565b60405180910390fd5b6000610545600a83610b0090919063ffffffff16565b905081600160009054906101000a900473ffffffffffffffffffffffffffffffffffffffff1673ffffffffffffffffffffffffffffffffffffffff1663dd62ed3e61058e610af8565b306040518363ffffffff1660e01b81526004016105ac929190610fe5565b60206040518083038186803b1580156105c457600080fd5b505afa1580156105d8573d6000803e3d6000fd5b505050506040513d601f19601f820116820180604052508101906105fc9190610f4c565b101561063d576040517f08c379a00000000000000000000000000000000000000000000000000000000081526004016106349061105a565b60405180910390fd5b610679600160009054906101000a900473ffffffffffffffffffffffffffffffffffffffff1661066b610af8565b610673610405565b85610b16565b600260009054906101000a900473ffffffffffffffffffffffffffffffffffffffff1673ffffffffffffffffffffffffffffffffffffffff1663a9059cbb6106bf610af8565b836040518363ffffffff1660e01b81526004016106dd92919061107a565b602060405180830381600087803b1580156106f757600080fd5b505af115801561070b573d6000803e3d6000fd5b505050506040513d601f19601f8201168201806040525081019061072f91906110cf565b505050565b600260009054906101000a900473ffffffffffffffffffffffffffffffffffffffff1681565b600092915050565b600092915050565b610772610af8565b73ffffffffffffffffffffffffffffffffffffffff16610790610405565b73ffffffffffffffffffffffffffffffffffffffff16146107e6576040517f08c379a00000000000000000000000000000000000000000000000000000000081526004016107dd90610f17565b60405180910390fd5b600073ffffffffffffffffffffffffffffffffffffffff168173ffffffffffffffffffffffffffffffffffffffff161415610856576040517f08c379a000000000000000000000000000000000000000000000000000000000815260040161084d9061116e565b60405180910390fd5b8073ffffffffffffffffffffffffffffffffffffffff1660008054906101000a900473ffffffffffffffffffffffffffffffffffffffff1673ffffffffffffffffffffffffffffffffffffffff167f8be0079c531659141344cd1fd0a4f28419497f9722a3daafe3b4186f6b6457e060405160405180910390a3806000806101000a81548173ffffffffffffffffffffffffffffffffffffffff021916908373ffffffffffffffffffffffffffffffffffffffff16021790555050565b61091b610af8565b73ffffffffffffffffffffffffffffffffffffffff16610939610405565b73ffffffffffffffffffffffffffffffffffffffff161461098f576040517f08c379a000000000000000000000000000000000000000000000000000000000815260040161098690610f17565b60405180910390fd5b6000600260009054906101000a900473ffffffffffffffffffffffffffffffffffffffff1673ffffffffffffffffffffffffffffffffffffffff166370a08231306040518263ffffffff1660e01b81526004016109ec9190610e32565b60206040518083038186803b158015610a0457600080fd5b505afa158015610a18573d6000803e3d6000fd5b505050506040513d601f19601f82011682018060405250810190610a3c9190610f4c565b9050600260009054906101000a900473ffffffffffffffffffffffffffffffffffffffff1673ffffffffffffffffffffffffffffffffffffffff1663a9059cbb610a84610405565b836040518363ffffffff1660e01b8152600401610aa292919061107a565b602060405180830381600087803b158015610abc57600080fd5b505af1158015610ad0573d6000803e3d6000fd5b505050506040513d601f19601f82011682018060405250810190610af491906110cf565b5050565b600033905090565b60008183610b0e91906111bd565b905092915050565b60008473ffffffffffffffffffffffffffffffffffffffff166323b872dd8585856040518463ffffffff1660e01b8152600401610b5593929190611217565b602060405180830381600087803b158015610b6f57600080fd5b505af1158015610b83573d6000803e3d6000fd5b505050506040513d601f19601f82011682018060405250810190610ba791906110cf565b905080610be9576040517f08c379a0000000000000000000000000000000000000000000000000000000008152600401610be09061129a565b60405180910390fd5b5050505050565b600080fd5b600073ffffffffffffffffffffffffffffffffffffffff82169050919050565b6000610c2082610bf5565b9050919050565b610c3081610c15565b8114610c3b57600080fd5b50565b600081359050610c4d81610c27565b92915050565b6000819050919050565b610c6681610c53565b8114610c7157600080fd5b50565b600081359050610c8381610c5d565b92915050565b60008060408385031215610ca057610c9f610bf0565b5b6000610cae85828601610c3e565b9250506020610cbf85828601610c74565b9150509250929050565b60008115159050919050565b610cde81610cc9565b82525050565b6000602082019050610cf96000830184610cd5565b92915050565b610d0881610c53565b82525050565b6000602082019050610d236000830184610cff565b92915050565b600080600060608486031215610d4257610d41610bf0565b5b6000610d5086828701610c3e565b9350506020610d6186828701610c3e565b9250506040610d7286828701610c74565b9150509250925092565b6000819050919050565b6000610da1610d9c610d9784610bf5565b610d7c565b610bf5565b9050919050565b6000610db382610d86565b9050919050565b6000610dc582610da8565b9050919050565b610dd581610dba565b82525050565b6000602082019050610df06000830184610dcc565b92915050565b600060208284031215610e0c57610e0b610bf0565b5b6000610e1a84828501610c3e565b91505092915050565b610e2c81610c15565b82525050565b6000602082019050610e476000830184610e23565b92915050565b600060208284031215610e6357610e62610bf0565b5b6000610e7184828501610c74565b91505092915050565b60008060408385031215610e9157610e90610bf0565b5b6000610e9f85828601610c3e565b9250506020610eb085828601610c3e565b9150509250929050565b600082825260208201905092915050565b7f4f776e61626c653a2063616c6c6572206973206e6f7420746865206f776e6572600082015250565b6000610f01602083610eba565b9150610f0c82610ecb565b602082019050919050565b60006020820190508181036000830152610f3081610ef4565b9050919050565b600081519050610f4681610c5d565b92915050565b600060208284031215610f6257610f61610bf0565b5b6000610f7084828501610f37565b91505092915050565b7f4255534420696e2077616c6c657420746f6f206c6f772e000000000000000000600082015250565b6000610faf601783610eba565b9150610fba82610f79565b602082019050919050565b60006020820190508181036000830152610fde81610fa2565b9050919050565b6000604082019050610ffa6000830185610e23565b6110076020830184610e23565b9392505050565b7f4255534420616c6c6f77616e636520746f6f206c6f772e000000000000000000600082015250565b6000611044601783610eba565b915061104f8261100e565b602082019050919050565b6000602082019050818103600083015261107381611037565b9050919050565b600060408201905061108f6000830185610e23565b61109c6020830184610cff565b9392505050565b6110ac81610cc9565b81146110b757600080fd5b50565b6000815190506110c9816110a3565b92915050565b6000602082840312156110e5576110e4610bf0565b5b60006110f3848285016110ba565b91505092915050565b7f4f776e61626c653a206e6577206f776e657220697320746865207a65726f206160008201527f6464726573730000000000000000000000000000000000000000000000000000602082015250565b6000611158602683610eba565b9150611163826110fc565b604082019050919050565b600060208201905081810360008301526111878161114b565b9050919050565b7f4e487b7100000000000000000000000000000000000000000000000000000000600052601160045260246000fd5b60006111c882610c53565b91506111d383610c53565b9250817fffffffffffffffffffffffffffffffffffffffffffffffffffffffffffffffff048311821515161561120c5761120b61118e565b5b828202905092915050565b600060608201905061122c6000830186610e23565b6112396020830185610e23565b6112466040830184610cff565b949350505050565b7f546f6b656e207472616e73666572206661696c65642e00000000000000000000600082015250565b6000611284601683610eba565b915061128f8261124e565b602082019050919050565b600060208201905081810360008301526112b381611277565b905091905056fea2646970667358221220ff2afc2eb5104af2abe481b9e6b1528fa6ebe4304f4c70d7bae08aa79caa786264736f6c63430008090033",
  "immutableReferences": {},
  "source": "// SPDX-License-Identifier: MIT\npragma solidity ^0.8.0;\n\nimport \"./IERC20.sol\";\nimport \"./Ownable.sol\";\nimport \"./SafeMath.sol\";\n\ncontract KyotoSwap is IERC20, Ownable {\n\tusing SafeMath for uint256;\n\n\tIERC20 public busd;\n\tIERC20 public kyo;\n\n\tconstructor(address _busd, address _kyo) {\n\t\tbusd = IERC20(_busd);\n\t\tkyo = IERC20(_kyo);\n\t}\n\n\tfunction swap(uint256 _amountbusd) public {\n\t\trequire(_amountbusd > 0);\n\t\trequire(_amountbusd <= busd.balanceOf(_msgSender()),\n\t\t\t\"BUSD in wallet too low.\"\n\t\t);\n\n\t\tuint256 _amountkyo = _amountbusd.mul(10);\n\n\t\trequire(busd.allowance(_msgSender(), address(this)) >= _amountbusd,\n\t\t\t\"BUSD allowance too low.\"\n\t\t);\n\t\t\n\t\t_safeTransferFrom(busd, _msgSender(), owner(), _amountbusd);\n\t\tkyo.transfer(_msgSender(), _amountkyo);\n\t}\n\n\tfunction _safeTransferFrom(\n\t\tIERC20 token,\n\t\taddress sender,\n\t\taddress recipient,\n\t\tuint256 amount\n\t) private {\n\t\tbool send = token.transferFrom(sender, recipient, amount);\n\t\trequire(send, \"Token transfer failed.\");\n\t}\n\n\tfunction withdrawbalance() public onlyOwner {\n\t\tuint256 balance = kyo.balanceOf(address(this));\n\t\tkyo.transfer(owner(), balance);\n\t}\n\n\tfunction allowance(address owner, address spender) external virtual view returns (uint256) {}\n\tfunction approve(address spender, uint256 amount) external virtual returns (bool) {}\n\tfunction balanceOf(address account) external virtual view returns (uint256) {}\n\tfunction totalSupply() external virtual view returns (uint256) {}\n\tfunction transfer(address recipient, uint256 amount) external virtual returns (bool) {}\n\tfunction transferFrom(address sender, address recipient, uint256 amount) external virtual returns (bool) {}\n}",
  "sourcePath": "/home/aman/kyotoswap/kyo_swap_app/src/contracts/KyotoSwap.sol",
  "compiler": {
    "name": "solc",
    "version": "0.8.9+commit.e5eed63a.Emscripten.clang"
  },
  "schemaVersion": "3.4.3",
  "updatedAt": "2021-11-01T07:03:28.522Z",
  "networkType": "ethereum",
  "devdoc": {
    "kind": "dev",
    "methods": {
      "allowance(address,address)": {
        "details": "Returns the remaining number of tokens that `spender` will be allowed to spend on behalf of `owner` through {transferFrom}. This is zero by default. This value changes when {approve} or {transferFrom} are called."
      },
      "approve(address,uint256)": {
        "details": "Sets `amount` as the allowance of `spender` over the caller's tokens. Returns a boolean value indicating whether the operation succeeded. IMPORTANT: Beware that changing an allowance with this method brings the risk that someone may use both the old and the new allowance by unfortunate transaction ordering. One possible solution to mitigate this race condition is to first reduce the spender's allowance to 0 and set the desired value afterwards: https://github.com/ethereum/EIPs/issues/20#issuecomment-263524729 Emits an {Approval} event."
      },
      "balanceOf(address)": {
        "details": "Returns the amount of tokens owned by `account`."
      },
      "owner()": {
        "details": "Returns the address of the current owner."
      },
      "renounceOwnership()": {
        "details": "Leaves the contract without owner. It will not be possible to call `onlyOwner` functions anymore. Can only be called by the current owner. NOTE: Renouncing ownership will leave the contract without an owner, thereby removing any functionality that is only available to the owner."
      },
      "totalSupply()": {
        "details": "Returns the amount of tokens in existence."
      },
      "transfer(address,uint256)": {
        "details": "Moves `amount` tokens from the caller's account to `recipient`. Returns a boolean value indicating whether the operation succeeded. Emits a {Transfer} event."
      },
      "transferFrom(address,address,uint256)": {
        "details": "Moves `amount` tokens from `sender` to `recipient` using the allowance mechanism. `amount` is then deducted from the caller's allowance. Returns a boolean value indicating whether the operation succeeded. Emits a {Transfer} event."
      },
      "transferOwnership(address)": {
        "details": "Transfers ownership of the contract to a new account (`newOwner`). Can only be called by the current owner."
      }
    },
    "version": 1
  },
  "userdoc": {
    "kind": "user",
    "methods": {},
    "version": 1
  }
}